:020000040800F2
:100000000050002021100008B10F0008B70F0008B1
:10001000BD0F0008C30F0008C90F00080000000052
:10002000000000000000000000000000CF0F0008EA
:10003000DB0F000800000000E70F0008F30F0008C6
:1000400069100008691000086910000869100008AC
:10005000691000086910000869100008691000089C
:10006000691000086910000869100008691000088C
:10007000691000086910000869100008691000087C
:10008000691000086910000869100008691000086C
:10009000691000086910000869100008691000085C
:1000A000691000086910000869100008691000084C
:1000B00001100008691000086910000869100008A4
:1000C000691000086910000869100008691000082C
:1000D000691000086910000869100008691000081C
:1000E000691000086910000869100008000000008D
:1000F0000000000000000000000000000000000000
:0C01000000000000000000005FF808F1A3
:10010C0010B5054C237833B9044B13B10448AFF345
:10011C0000800123237010BD280000200000000087
:10012C00D026000808B5034B1BB103490348AFF3B5
:10013C00008008BD000000002C000020D026000824
:10014C0080B483B000AF7860094A7B6852F82330E2
:10015C00012B06D1064A7B68002142F823100123AB
:10016C0000E0002318460C37BD4680BC704700BF2A
:10017C009400002080B483B000AF7860064A7B689E
:10018C0052F82330012B0CBF01230023DBB218469D
:10019C000C37BD4680BC70478400002080B582B00F
:1001AC0000AF00237B608CE04A4A7B6852F8232026
:1001BC0049497B6841F823207B68002B09D1012138
:1001CC00464801F041FA03461946424A7B6842F818
:1001DC0023107B68012B09D10221404801F034FA2D
:1001EC00034619463B4A7B6842F823107B68022B76
:1001FC0009D11021394801F027FA03461946354A2E
:10020C007B6842F823107B68032B09D10121344809
:10021C0001F01AFA034619462E4A7B6842F823105D
:10022C002C4A7B6852F823202B497B6851F82330E9
:10023C009A4243D12B4A7B6852F8232025497B688C
:10024C0051F823309A421ED0224A7B6852F8232060
:10025C0024497B6841F82320224A7B6852F82330DA
:10026C00002B05D1204A7B68012142F8231025E0A0
:10027C001E4A7B68002142F823101D4A7B6800212E
:10028C0042F823101AE0174A7B6852F82330002BEF
:10029C0014D1174A7B6852F82330952B09DC144A89
:1002AC007B6852F823305A1C11497B6841F8232093
:1002BC0004E00E4A7B68012142F823107B6801336D
:1002CC007B607B68032B7FF76FAF00BF00BF0837E5
:1002DC00BD4680BD540000204400002000080140B1
:1002EC00000C0140640000209400002084000020D9
:1002FC007400002080B500AF8C4B1B68042B00F2FF
:10030C00128101A252F823F02903000851030008BE
:10031C00C103000839040008AF040008844B1B68B3
:10032C004FF47A7202FB03F3184600F08FFD0A209B
:10033C0000F0A8FD7D4B01221A607E4B1B687E4AA3
:10034C001360F0E000F06CFB00F0C6FB7B4B1B680D
:10035C00012B0ED17A4B1B684FF47A7202FB03F31C
:10036C00184600F073FD0A2000F08CFD6F4B022242
:10037C001A60744B1B68012B08D14FF47A7000F093
:10038C0081FD6D4B1B68013B6B4A13600120FFF72D
:10039C00D7FE0346002B00F0BF806B4B1B684FF45D
:1003AC007A7202FB03F3184600F050FD5F4B1422E7
:1003BC001A60B1E000F034FB00F07EFB5F4B1B6871
:1003CC00012B12D1614B1B684FF47A7202FB03F3C1
:1003DC00184600F03BFD0A2000F054FD5B4B1B68F7
:1003EC00554A1360514B03221A60564B1B68012B64
:1003FC0008D14FF47A7000F045FD4F4B1B68013B60
:10040C004D4A13600120FFF79BFE0346002B00F0C2
:10041C0085804D4B1B684FF47A7202FB03F3184630
:10042C0000F014FD414B15221A6077E000F034FB0C
:10043C0000F01EFB414B1B68012B12D1444B1B6877
:10044C004FF47A7202FB03F3184600F0FFFC0A200B
:10045C0000F018FD3E4B1B68374A1360334B0422E7
:10046C001A60384B1B68012B08D14FF47A7000F0DE
:10047C0009FD314B1B68013B2F4A13600120FFF72C
:10048C005FFE0346002B4BD02F4B1B684FF47A7248
:10049C0002FB03F3184600F0D9FC244B16221A6019
:1004AC003EE000F0F9FA00F0CFFA244B1B68012B68
:1004BC0012D11F4B1B684FF47A7202FB03F31846E0
:1004CC0000F0C4FC0A2000F0DDFC1A4B1B681A4A31
:1004DC001360164B01221A601A4B1B68012B08D1B2
:1004EC004FF47A7000F0CEFC134B1B68013B124AA0
:1004FC0013600120FFF724FE0346002B12D0124B91
:10050C001B684FF47A7202FB03F3184600F09EFC52
:10051C00064B17221A6005E000BF04E000BF02E0A2
:10052C0000BF00E000BF00BF80BD00BFA8000020DE
:10053C001000002000000020AC000020080100206A
:10054C0014000020100100201800002004000020DE
:10055C000800002080B500AF684B1B68143B032BD0
:10056C0000F2C18001A252F823F000BF89050008F7
:10057C00E70500083F0600089B06000800F050FA4B
:10058C0000F0AAFA5E4B1B68012B06D15B4B0122D3
:10059C001A6040F6B83000F059FC0220FFF7D0FD8D
:1005AC000346002B0BD0554B15221A60554B1B687C
:1005BC004FF47A7202FB03F3184600F047FC01205B
:1005CC00FFF7BEFD0346002B00F08F804B4B28221B
:1005DC001A600A2000F03AFC87E000F06DFA484BF4
:1005EC001B68012B06D1454B02221A604FF4FA60AE
:1005FC0000F02CFC0220FFF7A3FD0346002B0BD0D0
:10060C003E4B16221A603F4B1B684FF47A7202FB6A
:10061C0003F3184600F01AFC0120FFF791FD034686
:10062C00002B64D0354B28221A600A2000F00EFCF7
:10063C005DE000F01DFA00F02FFA314B1B68012B26
:10064C0006D12E4B03221A6040F6B83000F0FEFBA8
:10065C000220FFF775FD0346002B0BD0274B17220A
:10066C001A60284B1B684FF47A7202FB03F318468E
:10067C0000F0ECFB0120FFF763FD0346002B38D0A4
:10068C001E4B28221A600A2000F0E0FB31E000F03B
:10069C00DBF91B4B1B68012B06D1184B04221A608B
:1006AC004FF4FA6000F0D2FB0220FFF749FD03463D
:1006BC00002B0BD0114B14221A60124B1B684FF4F9
:1006CC007A7202FB03F3184600F0C0FB0120FFF71F
:1006DC0037FD0346002B0ED0084B28221A600A2047
:1006EC0000F0B4FB07E000BF06E000BF04E000BF71
:1006FC0002E000BF00E000BF00BF80BDA8000020EA
:10070C00080100201800002080B500AF1D4B1B68AD
:10071C00322B02D0332B18D032E000F04DFA0020EF
:10072C00FFF70EFD0346002B27D0174B1A68174B0B
:10073C001B6813444FF4FA6202FB03F3184600F0F3
:10074C00A1FB104B33221A6017E0114B1B68032BD3
:10075C0002D100F0D1F908E00D4B1B68042B02D13B
:10076C0000F0DEF901E000F0EFF90A4B1B68012BF9
:10077C0005D1074B32221A6001E000BF00E000BF38
:10078C0000BF80BDA4000020000000200C00002051
:10079C00A80000201001002080B500AF954B1B680D
:1007AC00283B032B00F21A8101A252F823F000BF60
:1007BC00CD0700084B080008C908000853090008B9
:1007CC0000F02EF900F0E8F90220FFF7B9FC03461F
:1007DC00002B04D0884B1B680133874A136002201E
:1007EC00FFF7C8FC0346002B0BD0844B1B68012B76
:1007FC0007D1814B1B68013B7F4A1360C82000F076
:10080C0025FB0320FFF79CFC0346002B06D07C4BFA
:10081C001A68794B1B681344794A13600120FFF75F
:10082C008FFC0346002B00F0DB80734B00221A6018
:10083C00704B29221A600A2000F008FBD0E000F06F
:10084C0017F900F0A9F90220FFF77AFC0346002BF8
:10085C0004D06C4B1B6801336A4A13600220FFF70B
:10086C0089FC0346002B0BD0644B1B68012B07D172
:10087C00644B1B68013B634A1360C82000F0E6FA26
:10088C000320FFF75DFC0346002B06D05E4B1A6875
:10089C005C4B1B6813445C4A13600120FFF750FC4F
:1008AC000346002B00F09E80564B00221A60514BE1
:1008BC002A221A600A2000F0C9FA93E000F0C4F86A
:1008CC0000F06AF90220FFF73BFC0346002B04D032
:1008DC004E4B1B6801334D4A13600220FFF74AFC54
:1008EC000346002B0BD0454B1B68012B07D1474B04
:1008FC001B68013B454A1360C82000F0A7FA03208F
:10090C00FFF71EFC0346002B06D0414B1A683F4BE9
:10091C001B6813443E4A13600120FFF711FC034689
:10092C00002B61D0394B00221A60394B1A68364BB8
:10093C001B681344374A13602E4B2B221A600A2073
:10094C0000F084FA50E000F0C7F800F011F9022032
:10095C00FFF7F6FB0346002B04D02A4B1B68013330
:10096C00284A13600220FFF705FC0346002B0BD02E
:10097C00224B1B68012B07D1224B1B68013B214AE0
:10098C001360C82000F062FA0320FFF7D9FB03467E
:10099C00002B06D0204B1A681A4B1B6813441E4AB6
:1009AC0013600120FFF7CCFB0346002B1ED0154B28
:1009BC0000221A60124B1A68174B1B68D31A174A7D
:1009CC0013600C4B01221A60134B1B684FF47A72A4
:1009DC0002FB03F3184600F039FA07E000BF06E00B
:1009EC0000BF04E000BF02E000BF00E000BF00BF9A
:1009FC0080BD00BFA8000020B0000020080100202E
:100A0C0000000020B800002004000020B4000020EA
:100A1C00080000200C000020100000201400002012
:100A2C0080B500AF01224FF48061054800F023FE31
:100A3C0000220821034800F01EFE00BF80BD00BF4D
:100A4C0000080140000C014080B500AF01224FF4BA
:100A5C008061054800F00FFE01220821034800F0D8
:100A6C000AFE00BF80BD00BF00080140000C014021
:100A7C0080B500AF00224FF48061054800F0FBFD0B
:100A8C0001220821034800F0F6FD00BF80BD00BF25
:100A9C0000080140000C014080B500AF012220216C
:100AAC00044800F0E8FD00221021024800F0E3FDAC
:100ABC0000BF80BD000C014080B500AF0122202199
:100ACC00044800F0D8FD01221021024800F0D3FDAB
:100ADC0000BF80BD000C014080B500AF002220217A
:100AEC00044800F0C8FD01221021024800F0C3FDAB
:100AFC0000BF80BD000C014080B500AF01224FF457
:100B0C008061054800F0B7FD00224FF48071034866
:100B1C0000F0B1FD00BF80BD000C01400008014099
:100B2C0080B500AF01224FF48061054800F0A3FDB1
:100B3C0001224FF48071034800F09DFD00BF80BD81
:100B4C00000C01400008014080B500AF00224FF4BA
:100B5C008061054800F08FFD01224FF4807103483D
:100B6C0000F089FD00BF80BD000C01400008014071
:100B7C0080B500AF00224FF48061054800F07BFD8A
:100B8C0000220821034800F076FD00BF80BD00BFA5
:100B9C0000080140000C014080B500AF002220216C
:100BAC00044800F068FD00221021024800F063FDAB
:100BBC0000BF80BD000C014080B500AF00224FF497
:100BCC008061054800F057FD01224FF48071034805
:100BDC0000F051FD00BF80BD000C01400008014039
:100BEC0080B500AF00F03CFA00F01CF800F0A2F861
:100BFC0000F054F8084801F08FF9084B00221A60F5
:100C0C00074B32221A60FFF775FBFFF7A3FCFFF7C7
:100C1C007BFDFFF7C1FDF6E7BC000020A80000201B
:100C2C00A400002080B590B000AF07F11803282273
:100C3C000021184601F03EFD3B1D00221A605A604F
:100C4C009A60DA601A610223BB610123BB62102334
:100C5C00FB6200237B6307F11803184600F024FDA8
:100C6C000346002B01D000F0EBF80F237B60002330
:100C7C00BB600023FB6000233B6100237B613B1DB9
:100C8C000021184600F092FF0346002B01D000F023
:100C9C00D7F800BF4037BD4680BD000080B586B098
:100CAC0000AF07F1080300221A605A609A60DA60FC
:100CBC003B4600221A605A601D4B4FF080421A606E
:100CCC001B4B4FF6FF125A60194B00229A60184BBF
:100CDC000A22DA60164B00221A61154B00229A6127
:100CEC00134801F0C9F80346002B01D000F0A8F816
:100CFC004FF48053BB6007F1080319460C4801F010
:100D0C0065FA0346002B01D000F09AF800233B60F3
:100D1C0000237B603B461946054801F037FC03462F
:100D2C00002B01D000F08CF800BF1837BD4680BDF9
:100D3C00BC00002080B586B000AF07F1080300228C
:100D4C001A605A609A60DA60344B9B69334A43F0FC
:100D5C0004039361314B9B6903F004037B607B6854
:100D6C002E4B9B692D4A43F0080393612B4B9B69D7
:100D7C0003F008033B603B6800224FF4876128486E
:100D8C0000F079FC00224FF4A061264800F073FCBF
:100D9C001323BB600023FB6001233B6107F10803B5
:100DAC001946204800F0CCFA4023BB600223FB60BC
:100DBC0002237B6107F1080319461A4800F0C0FAB8
:100DCC000123BB600023FB6001233B6107F1080397
:100DDC001946134800F0B4FA4FF48763BB60012343
:100DEC00FB6000233B6102237B6107F1080319467A
:100DFC000B4800F0A5FA4FF4A063BB600123FB6025
:100E0C0000233B6102237B6107F108031946054867
:100E1C0000F096FA00BF1837BD4680BD00100240A6
:100E2C00000C01400008014080B582B000AF786032
:100E3C00FFF7B4F900F042F800BF0837BD4680BD9B
:100E4C0080B400AF72B600BFFEE7000080B483B080
:100E5C0000AF78607B68084A82FB03129210DB17A4
:100E6C00D31A064A1360064B00221A6000BF0C37D7
:100E7C00BD4680BC704700BF6766666604010020F3
:100E8C000801002080B483B000AF78607B68084A0A
:100E9C0082FB03129210DB17D31A064A1360064B1F
:100EAC0000221A6000BF0C37BD4680BC704700BFE3
:100EBC00676666660C0100201001002080B400AF4C
:100ECC00114B1B68002B0BDD0F4B1B68013B0E4AB3
:100EDC0013600D4B1B68002B02DC0C4B01221A60BB
:100EEC000B4B1B68002B0BDD094B1B68013B084AA5
:100EFC001360074B1B68002B02DC064B01221A60A7
:100F0C0000BFBD4680BC70470401002008010020D2
:100F1C000C0100201001002080B483B000AF0E4BF8
:100F2C009B690D4A43F0010393610B4B9B6903F0E2
:100F3C0001037B607B68084BDB69074A43F08053F5
:100F4C00D361054BDB6903F080533B603B6800BF0A
:100F5C000C37BD4680BC70470010024080B584B091
:100F6C0000AF78607B681B68B3F1804F13D10C4BDA
:100F7C00DB690B4A43F00103D361094BDB6903F0D6
:100F8C000103FB60FB68002200211C2000F0A1F98A
:100F9C001C2000F0BAF900BF1037BD4680BD00BF61
:100FAC000010024080B400AFFEE780B400AFFEE753
:100FBC0080B400AFFEE780B400AFFEE780B400AFB2
:100FCC00FEE780B400AF00BFBD4680BC704780B464
:100FDC0000AF00BFBD4680BC704780B400AF00BFFF
:100FEC00BD4680BC704780B500AF00F07FF800BFF5
:100FFC0080BD000080B500AF024800F0DFFF00BFED
:10100C0080BD00BFBC00002080B400AF00BFBD4657
:10101C0080BC70470C480D490D4A002302E0D4589F
:10102C00C4500433C4188C42F9D30A4A0A4C002326
:10103C0001E013600432A242FBD3FFF7E5FF01F09D
:10104C0015FBFFF7CDFD70470000002028000020A5
:10105C00102700082800002018010020FEE70000DF
:10106C0080B500AF084B1B68074A43F010031360B0
:10107C00032000F023F90F2000F008F8FFF74CFFD5
:10108C000023184680BD00BF0020024080B582B00E
:10109C0000AF7860124B1A68124B1B7819464FF44C
:1010AC007A73B3FBF1F3B2FBF3F3184600F03BF9A0
:1010BC000346002B01D001230EE07B680F2B0AD8CE
:1010CC00002279684FF0FF3000F003F9064A7B6884
:1010DC001360002300E0012318460837BD4680BD8D
:1010EC001C000020240000202000002080B400AF51
:1010FC00054B1B781A46054B1B681344034A1360B7
:10110C0000BFBD4680BC70472400002014010020A5
:10111C0080B400AF024B1B681846BD4680BC7047BC
:10112C001401002080B485B000AF78607B6803F0B8
:10113C000703FB600C4BDB68BB60BA684FF6FF0320
:10114C001340BB60FB681A02BB68134343F0BF63D8
:10115C0043F40033BB60044ABB68D36000BF143750
:10116C00BD4680BC704700BF00ED00E080B400AF0E
:10117C00044BDB681B0A03F007031846BD4680BC12
:10118C00704700BF00ED00E080B483B000AF0346B1
:10119C00FB7197F90730002B0BDBFB7903F01F0277
:1011AC00064997F907305B09012000FA02F241F871
:1011BC00232000BF0C37BD4680BC704700E100E027
:1011CC0080B483B000AF03463960FB7197F90730E8
:1011DC00002B0ADB3B68DAB20C4997F90730120195
:1011EC00D2B20B4483F800230AE03B68DAB2084918
:1011FC00FB7903F00F03043B1201D2B20B441A76B5
:10120C0000BF0C37BD4680BC704700BF00E100E05A
:10121C0000ED00E080B489B000AFF860B9607A608E
:10122C00FB6803F00703FB61FB69C3F10703042BA5
:10123C0028BF0423BB61FB690433062B02D9FB696D
:10124C00033B00E000237B614FF0FF32BB6902FAE5
:10125C0003F3DA43BB681A407B699A404FF0FF31C5
:10126C007B6901FA03F3D9437B680B40134318469F
:10127C002437BD4680BC704780B582B000AF786023
:10128C007B68013BB3F1807F01D301230FE00A4A55
:10129C007B68013B53600F214FF0FF30FFF790FF4D
:1012AC00054B00229A60044B07221A600023184653
:1012BC000837BD4680BD00BF10E000E080B582B0AD
:1012CC0000AF78607868FFF72DFF00BF0837BD4688
:1012DC0080BD80B586B000AF0346B9607A60FB7301
:1012EC0000237B61FFF742FF78617A68B9687869FF
:1012FC00FFF790FF024697F90F3011461846FFF79B
:10130C005FFF00BF1837BD4680BD80B582B000AF0F
:10131C000346FB7197F907301846FFF735FF00BFFE
:10132C000837BD4680BD80B582B000AF7860786864
:10133C00FFF7A2FF034618460837BD4680BD0000E4
:10134C0080B48BB000AF7860396000237B620023DF
:10135C003B6269E101227B6A02FA03F3FB613B68A1
:10136C001B68FA691340BB61BA69FB699A4240F089
:10137C0058813B685B689A4A93425ED0984A934284
:10138C0075D8984A934258D0964A93426FD8964A49
:10139C00934252D0944A934269D8944A93424CD087
:1013AC00924A934263D8924A934246D0904A9342CF
:1013BC005DD8122B2AD8122B59D801A252F823F03F
:1013CC004714000821140008331400087514000891
:1013DC007B1400087B1400087B1400087B140008A5
:1013EC007B1400087B1400087B1400087B14000895
:1013FC007B1400087B1400087B1400087B14000885
:10140C007B140008291400083D140008794A934203
:10141C0013D02CE03B68DB683B6229E03B68DB685F
:10142C0004333B6224E03B68DB6808333B621FE01B
:10143C003B68DB680C333B621AE03B689B68002B13
:10144C0002D104233B6213E03B689B68012B05D15E
:10145C0008233B627B68FA691A6109E008233B6246
:10146C007B68FA695A6103E000233B6200E000BF2D
:10147C00BB69FF2B01D87B6801E07B6804337B617F
:10148C00BB69FF2B02D87B6A9B0002E07B6A083B9E
:10149C009B003B617B691A680F213B6901FA03F3DE
:1014AC00DB431A40396A3B6901FA03F31A437B693F
:1014BC001A603B685B6803F08053002B00F0B1802E
:1014CC004D4B9B694C4A43F0010393614A4B9B691A
:1014DC0003F00103BB60BB68484A7B6A9B0802337C
:1014EC0052F82330FB607B6A03F003039B000F224E
:1014FC0002FA03F3DB43FA681340FB607B68404A53
:10150C00934213D07B683F4A93420DD07B683E4A8E
:10151C00934207D07B683D4A934201D1032306E0F6
:10152C00042304E0022302E0012300E000237A6A92
:10153C0002F0030292009340FA681343FB602F49B8
:10154C007B6A9B080233FA6841F823203B685B688E
:10155C0003F48033002B06D02D4B1A682C49BB6941
:10156C0013430B6006E02A4B1A68BB69DB4328491E
:10157C0013400B603B685B6803F40033002B06D010
:10158C00234B5A682249BB6913434B6006E0204B3E
:10159C005A68BB69DB431E4913404B603B685B6870
:1015AC0003F48013002B06D0194B9A681849BB69B9
:1015BC0013438B6006E0164B9A68BB69DB431449F6
:1015CC0013408B603B685B6803F40013002B21D045
:1015DC000F4BDA680E49BB691343CB6021E000BFA7
:1015EC000000321000003110000022100000211009
:1015FC000000121000001110001002400000014009
:10160C0000080140000C0140001001400014014092
:10161C00000401400B4BDA68BB69DB4309491340FA
:10162C00CB607B6A01337B623B681A687B6A22FA67
:10163C0003F3002B7FF48EAE00BF00BF2C37BD46EA
:10164C0080BC70470004014080B485B000AF786066
:10165C000B467B807B689A687B881340002B02D0FA
:10166C000123FB7301E00023FB73FB7B184614374B
:10167C00BD4680BC704780B483B000AF78600B4629
:10168C007B8013467B707B78002B03D07A887B6839
:10169C001A6103E07B881A047B681A6100BF0C375F
:1016AC00BD4680BC7047000080B586B000AF786046
:1016BC007B68002B01D1012372E27B681B6803F06D
:1016CC000103002B00F08780924B5B6803F00C0346
:1016DC00042B0CD08F4B5B6803F00C03082B12D13E
:1016EC008C4B5B6803F48033B3F5803F0BD1894B93
:1016FC001B6803F40033002B6CD07B685B68002BF9
:10170C0068D101234CE27B685B68B3F5803F06D15E
:10171C00804B1B687F4A43F4803313602EE07B6858
:10172C005B68002B0CD17B4B1B687A4A23F480330B
:10173C001360784B1B68774A23F4802313601DE0F9
:10174C007B685B68B3F5A02F0CD1724B1B68714A98
:10175C0043F4802313606F4B1B686E4A43F4803351
:10176C0013600BE06B4B1B686A4A23F480331360E5
:10177C00684B1B68674A23F4802313607B685B68A3
:10178C00002B13D0FFF7C4FC386108E0FFF7C0FC56
:10179C0002463B69D31A642B01D9032300E25D4B4B
:1017AC001B6803F40033002BF0D014E0FFF7B0FCFF
:1017BC00386108E0FFF7ACFC02463B69D31A642B96
:1017CC0001D90323ECE1534B1B6803F40033002BCA
:1017DC00F0D100E000BF7B681B6803F00203002B14
:1017EC0063D04C4B5B6803F00C03002B0BD0494BC4
:1017FC005B6803F00C03082B1CD1464B5B6803F4AD
:10180C008033002B16D1434B1B6803F00203002BD3
:10181C0005D07B681B69012B01D00123C0E13D4B36
:10182C001B6823F0F8027B685B69DB0039491343C2
:10183C000B603AE07B681B69002B20D0364B0122F1
:10184C001A60FFF765FC386108E0FFF761FC02469F
:10185C003B69D31A022B01D90323A1E12D4B1B6841
:10186C0003F00203002BF0D02A4B1B6823F0F80284
:10187C007B685B69DB00274913430B6015E0264B43
:10188C0000221A60FFF744FC386108E0FFF740FCC7
:10189C0002463B69D31A022B01D9032380E11D4B6D
:1018AC001B6803F00203002BF0D17B681B6803F06C
:1018BC000803002B3AD07B689B69002B19D0174B7F
:1018CC0001221A60FFF724FC386108E0FFF720FCC6
:1018DC0002463B69D31A022B01D9032360E10D4B5D
:1018EC005B6A03F00203002BF0D0012000F0A6FA93
:1018FC001CE00A4B00221A60FFF70AFC38610FE06B
:10190C00FFF706FC02463B69D31A022B08D90323C6
:10191C0046E100BF001002400000424280044242F7
:10192C00924B5B6A03F00203002BE9D17B681B68C6
:10193C0003F00403002B00F0A6800023FB758B4BF7
:10194C00DB6903F08053002B0DD1884BDB69874A90
:10195C0043F08053D361854BDB6903F08053BB604C
:10196C00BB680123FB75824B1B6803F48073002B4F
:10197C0018D17F4B1B687E4A43F480731360FFF7CA
:10198C00C7FB386108E0FFF7C3FB02463B69D31A7B
:10199C00642B01D9032303E1754B1B6803F480739B
:1019AC00002BF0D07B68DB68012B06D16F4B1B6AD8
:1019BC006E4A43F0010313622DE07B68DB68002B59
:1019CC000CD16A4B1B6A694A23F001031362674B03
:1019DC001B6A664A23F0040313621CE07B68DB6815
:1019EC00052B0CD1614B1B6A604A43F00403136254
:1019FC005E4B1B6A5D4A43F0010313620BE05B4BC9
:101A0C001B6A5A4A23F001031362584B1B6A574A4C
:101A1C0023F0040313627B68DB68002B15D0FFF7FF
:101A2C0077FB38610AE0FFF773FB02463B69D31A78
:101A3C0041F28832934201D90323B1E04B4B1B6A2C
:101A4C0003F00203002BEED014E0FFF761FB3861CA
:101A5C000AE0FFF75DFB02463B69D31A41F288327C
:101A6C00934201D903239BE0404B1B6A03F0020312
:101A7C00002BEED1FB7D012B05D13C4BDB693B4AA6
:101A8C0023F08053D3617B68DB69002B00F08780E7
:101A9C00364B5B6803F00C03082B61D07B68DB6969
:101AAC00022B46D1334B00221A60FFF731FB386111
:101ABC0008E0FFF72DFB02463B69D31A022B01D934
:101ACC0003236DE0294B1B6803F00073002BF0D14E
:101ADC007B681B6AB3F5803F08D1244B5B6823F409
:101AEC0000327B689B68214913434B601F4B5B683A
:101AFC0023F474127B68196A7B685B6A0B431B497D
:101B0C0013434B601B4B01221A60FFF701FB38613A
:101B1C0008E0FFF7FDFA02463B69D31A022B01D904
:101B2C0003233DE0114B1B6803F00073002BF0D036
:101B3C0035E0104B00221A60FFF7EAFA386108E032
:101B4C00FFF7E6FA02463B69D31A022B01D90323AD
:101B5C0026E0064B1B6803F00073002BF0D11EE04F
:101B6C007B68DB69012B07D1012319E000100240CF
:101B7C0000700040600042420B4B5B68FB60FB68EE
:101B8C0003F480327B681B6A9A4206D1FB6803F42B
:101B9C0070127B685B6A9A4201D0012300E000233B
:101BAC0018461837BD4680BD0010024080B584B081
:101BBC0000AF786039607B68002B01D10123D0E045
:101BCC006A4B1B6803F007033A689A4210D9674BBB
:101BDC001B6823F0070265493B6813430B60634B9A
:101BEC001B6803F007033A689A4201D00123B8E05E
:101BFC007B681B6803F00203002B20D07B681B68FA
:101C0C0003F00403002B05D0594B5B68584A43F48E
:101C1C00E06353607B681B6803F00803002B05D05E
:101C2C00534B5B68524A43F460535360504B5B68B0
:101C3C0023F0F0027B689B684D4913434B607B6833
:101C4C001B6803F00103002B40D07B685B68012B01
:101C5C0007D1474B1B6803F40033002B15D101232C
:101C6C007FE07B685B68022B07D1414B1B6803F05C
:101C7C000073002B09D1012373E03D4B1B6803F06B
:101C8C000203002B01D101236BE0394B5B6823F07D
:101C9C0003027B685B68364913434B60FFF738FAE5
:101CAC00F8600AE0FFF734FA0246FB68D31A41F2F7
:101CBC008832934201D9032353E02D4B5B6803F028
:101CCC000C027B685B689B009A42EBD1274B1B682C
:101CDC0003F007033A689A4210D2244B1B6823F096
:101CEC00070222493B6813430B60204B1B6803F02F
:101CFC0007033A689A4201D0012332E07B681B68E3
:101D0C0003F00403002B08D0194B5B6823F4E0624A
:101D1C007B68DB68164913434B607B681B6803F0D8
:101D2C000803002B09D0124B5B6823F460527B68CC
:101D3C001B69DB000E4913434B6000F021F802468F
:101D4C000B4B5B681B0903F00F030A49CB5C22FAAF
:101D5C0003F3094A1360094B1B681846FFF796F901
:101D6C00002318461037BD4680BD00BF002002403E
:101D7C0000100240F82600081C0000202000002063
:101D8C0090B48AB000AF294B3C1D0FCB84E80F00F8
:101D9C0040F201233B800023FB610023BB61002345
:101DAC007B6200237B6100233B62214B5B68FB6100
:101DBC00FB6903F00C03042B02D0082B03D02BE09F
:101DCC001C4B3B622BE0FB699B0C03F00F0328338D
:101DDC003B4413F8243C7B61FB6903F48033002BF8
:101DEC0012D0134B5B685B0C03F0010328333B44AC
:101DFC0013F8283CBB617B690E4A03FB02F2BB69FA
:101E0C00B2FBF3F37B6204E07B690B4A02FB03F346
:101E1C007B627B6A3B6202E0064B3B6200BF3B6A23
:101E2C0018462837BD4690BC704700BFE82600080E
:101E3C000010024000127A0000093D0080B485B009
:101E4C0000AF78600A4B1B680A4AA2FB03235B0AAB
:101E5C007A6802FB03F3FB6000BFFB685A1EFA6052
:101E6C00002BF9D100BF00BF1437BD4680BC7047B2
:101E7C001C000020D34D621080B582B000AF78609A
:101E8C007B68002B01D1012341E07B6893F83D3046
:101E9C00DBB2002B06D17B68002283F83C207868EB
:101EAC00FFF75CF87B68022283F83D207B681A6898
:101EBC007B6804331946104600F070FA7B680122E7
:101ECC0083F846207B68012283F83E207B68012240
:101EDC0083F83F207B68012283F840207B68012235
:101EEC0083F841207B68012283F842207B68012221
:101EFC0083F843207B68012283F844207B6801220D
:101F0C0083F845207B68012283F83D200023184686
:101F1C000837BD4680BD000080B485B000AF786046
:101F2C007B6893F83D30DBB2012B01D001233AE002
:101F3C007B68022283F83D207B681B68DA687B682B
:101F4C001B6842F00102DA607B681B68184A9342F6
:101F5C000ED07B681B68B3F1804F09D07B681B687F
:101F6C00144A934204D07B681B68134A934211D1E4
:101F7C007B681B689B6803F00703FB60FB68062B00
:101F8C0010D07B681B681A687B681B6842F00102E2
:101F9C001A6007E07B681B681A687B681B6842F054
:101FAC0001021A60002318461437BD4680BC7047E6
:101FBC00002C0140000400400008004080B582B0B5
:101FCC0000AF78607B681B681B6903F00203022B6F
:101FDC0022D17B681B68DB6803F00203022B1BD148
:101FEC007B681B686FF002021A617B6801221A770A
:101FFC007B681B689B6903F00303002B03D0786894
:10200C0000F0B1F905E0786800F0A4F9786800F008
:10201C00B3F97B6800221A777B681B681B6903F095
:10202C000403042B22D17B681B68DB6803F00403D8
:10203C00042B1BD17B681B686FF004021A617B6850
:10204C0002221A777B681B689B6903F44073002B90
:10205C0003D0786800F087F905E0786800F07AF929
:10206C00786800F089F97B6800221A777B681B6816
:10207C001B6903F00803082B22D17B681B68DB6803
:10208C0003F00803082B1BD17B681B686FF0080258
:10209C001A617B6804221A777B681B68DB6903F082
:1020AC000303002B03D0786800F05DF905E0786835
:1020BC0000F050F9786800F05FF97B6800221A771D
:1020CC007B681B681B6903F01003102B22D17B6803
:1020DC001B68DB6803F01003102B1BD17B681B689B
:1020EC006FF010021A617B6808221A777B681B68F4
:1020FC00DB6903F44073002B03D0786800F033F9EC
:10210C0005E0786800F026F9786800F035F97B680E
:10211C0000221A777B681B681B6903F00103012BF3
:10212C000ED17B681B68DB6803F00103012B07D120
:10213C007B681B686FF001021A617868FEF774FE09
:10214C007B681B681B6903F08003802B0ED17B68B6
:10215C001B68DB6803F08003802B07D17B681B684E
:10216C006FF080021A61786800F077FA7B681B6860
:10217C001B6903F04003402B0ED17B681B68DB68A6
:10218C0003F04003402B07D17B681B686FF04002C3
:10219C001A61786800F0F9F87B681B681B6903F01A
:1021AC002003202B0ED17B681B68DB6803F0200317
:1021BC00202B07D17B681B686FF020021A617868AE
:1021CC0000F042FA00BF0837BD4680BD80B584B030
:1021DC0000AF786039607B6893F83C30012B01D1FB
:1021EC000223B3E07B68012283F83C207B68022247
:1021FC0083F83D207B681B689B68FB60FB6823F0C1
:10220C007703FB60FB6823F47F43FB607B681B68F0
:10221C00FA689A603B681B68B3F5005F3ED0B3F573
:10222C00005F00F28780B3F5805F00F08580B3F526
:10223C00805F7FD8702B1AD0702B7BD8602B50D03E
:10224C00602B77D8502B3CD0502B73D8402B58D0C8
:10225C00402B6FD8302B64D0302B6BD8202B60D018
:10226C00202B67D8002B5CD0102B5AD062E07B68F7
:10227C0018683B6899683B685A683B68DB6800F0F3
:10228C0066F97B681B689B68FB60FB6843F077030F
:10229C00FB607B681B68FA689A604EE07B68186884
:1022AC003B6899683B685A683B68DB6800F04FF9FB
:1022BC007B681B689A687B681B6842F480429A6052
:1022CC003BE07B6818683B6859683B68DB681A46DA
:1022DC0000F0C6F87B681B685021184600F01DF909
:1022EC002BE07B6818683B6859683B68DB681A46CA
:1022FC0000F0E4F87B681B686021184600F00DF9CB
:10230C001BE07B6818683B6859683B68DB681A46B9
:10231C0000F0A6F87B681B684021184600F0FDF819
:10232C000BE07B681A683B681B681946104600F086
:10233C00F4F802E000BF00E000BF7B68012283F8E4
:10234C003D207B68002283F83C2000231846103780
:10235C00BD4680BD80B483B000AF786000BF0C3741
:10236C00BD4680BC704780B483B000AF786000BFBE
:10237C000C37BD4680BC704780B483B000AF78602A
:10238C0000BF0C37BD4680BC704780B483B000AF33
:10239C00786000BF0C37BD4680BC704780B485B0F8
:1023AC0000AF786039607B681B68FB607B68294AEA
:1023BC0093420BD07B68B3F1804F07D07B68264AE1
:1023CC00934203D07B68254A934208D1FB6823F0E3
:1023DC007003FB603B685B68FA681343FB607B68C7
:1023EC001C4A93420BD07B68B3F1804F07D07B68BB
:1023FC00194A934203D07B68184A934208D1FB6870
:10240C0023F44073FB603B68DB68FA681343FB60A2
:10241C00FB6823F080023B685B691343FB607B68BD
:10242C00FA681A603B689A687B68DA623B681A68DB
:10243C007B689A627B68074A934203D13B681A69AE
:10244C007B681A637B6801225A6100BF1437BD4652
:10245C0080BC7047002C0140000400400008004084
:10246C0080B487B000AFF860B9607A60FB681B6A13
:10247C007B61FB681B6A23F00102FB681A62FB6834
:10248C009B693B613B6923F0F0033B617B681B015B
:10249C003A6913433B617B6923F00A037B617A69D8
:1024AC00BB6813437B61FB683A699A61FB687A6984
:1024BC001A6200BF1C37BD4680BC704780B487B021
:1024CC0000AFF860B9607A60FB681B6A23F01002F9
:1024DC00FB681A62FB689B697B61FB681B6A3B614A
:1024EC007B6923F470437B617B681B037A6913431C
:1024FC007B613B6923F0A0033B61BB681B013A691C
:10250C0013433B61FB687A699A61FB683A691A620A
:10251C0000BF1C37BD4680BC704780B485B000AF8F
:10252C00786039607B689B68FB60FB6823F0700304
:10253C00FB603A68FB68134343F00703FB607B685E
:10254C00FA689A6000BF1437BD4680BC704780B4EF
:10255C0087B000AFF860B9607A603B60FB689B683D
:10256C007B617B6923F47F437B613B681A027B6848
:10257C001A43BB6813437A6913437B61FB687A691E
:10258C009A6000BF1C37BD4680BC704780B485B0D4
:10259C0000AF786039607B6893F83C30012B01D137
:1025AC00022346E07B68012283F83C207B680222F0
:1025BC0083F83D207B681B685B68FB607B681B684D
:1025CC009B68BB60FB6823F07003FB603B681B6877
:1025DC00FA681343FB607B681B68FA685A607B6877
:1025EC001B68164A93420ED07B681B68B3F1804F70
:1025FC0009D07B681B68124A934204D07B681B6825
:10260C00104A93420CD1BB6823F08003BB603B683B
:10261C005B68BA681343BB607B681B68BA689A60D6
:10262C007B68012283F83D207B68002283F83C20E4
:10263C00002318461437BD4680BC7047002C01405F
:10264C00000400400008004080B483B000AF786004
:10265C0000BF0C37BD4680BC704780B483B000AF60
:10266C00786000BF0C37BD4680BC704770B5002643
:10267C000C4D0D4C641BA410A64209D100F022F89D
:10268C0000260A4D0A4C641BA410A64205D170BD4D
:10269C0055F8043B98470136EEE755F8043B98474C
:1026AC000136F2E708270008082700080827000869
:1026BC000C27000803460244934200D1704703F8EC
:1026CC00011BF9E7F8B500BFF8BC08BC9E46704783
:0C26DC00F8B500BFF8BC08BC9E46704773
:1026E80002030405060708090A0B0C0D0E0F10104B
:1026F80000000000000000000102030406070809AA
:042708003101000893
:04270C000D010008B3
:1027100005000000030000000200000005000000AA
:1027200003000000020000000A0000000024F40082
:08273000100000000100000090
:0400000508001021BE
:00000001FF
